:020000040800F2
:1000000000100020B105000841050008490500085E
:1000100000000000000000000000000000000000E0
:100020000000000000000000000000005105000872
:1000300000000000000000005B05000865050008E6
:100040000106000800000000010600080106000883
:100050000106000801060008010600080106000864
:100060000000000001060008010600080106000863
:100070000106000801060008010600080000000053
:100080000106000800000000000000000106000852
:1000900000000000010600080106000875050008C0
:1000A0000000000001060008000000000106000832
:1000B0000000000000000000000000000000000040
:1000C00010B5064C2378002B07D1054B002B02D02E
:1000D000044800E000BF0123237010BD0C00002085
:1000E00000000000AC2B0008044B10B5002B03D01F
:1000F0000349044800E000BF10BDC04600000000F6
:1001000010000020AC2B0008002243088B4274D35F
:1001100003098B425FD3030A8B4244D3030B8B4208
:1001200028D3030C8B420DD3FF22090212BA030C11
:100130008B4202D31212090265D0030B8B4219D3F2
:1001400000E0090AC30B8B4201D3CB03C01A524112
:10015000830B8B4201D38B03C01A5241430B8B425A
:1001600001D34B03C01A5241030B8B4201D30B0343
:10017000C01A5241C30A8B4201D3CB02C01A52416A
:10018000830A8B4201D38B02C01A5241430A8B422D
:1001900001D34B02C01A5241030A8B4201D30B0216
:1001A000C01A5241CDD2C3098B4201D3CB01C01A30
:1001B000524183098B4201D38B01C01A524143093A
:1001C0008B4201D34B01C01A524103098B4201D328
:1001D0000B01C01A5241C3088B4201D3CB00C01A95
:1001E000524183088B4201D38B00C01A524143080D
:1001F0008B4201D34B00C01A5241411A00D2014632
:10020000524110467047FFE701B5002000F006F8A4
:1002100002BDC0460029F7D076E770477047C04658
:10022000B0B586B002AF00F0EDF900F039F800F09B
:10023000CFF800F08DF80E23FB1824221A803B1D06
:10024000154A1168196092889A800D257C193A1D0B
:100250000E23FB1819881148FA239B0000930623EC
:1002600000F0C6FD030023707B191B78002B06D11C
:100270009023DB051021180000F009FD05E0902314
:10028000DB050821180000F002FDFA239B0018008E
:1002900000F01CFAD9E7C046C42B00082800002053
:1002A00090B595B000AF20243B19180030231A00F8
:1002B000002102F04FFC1023FB18180010231A0035
:1002C000002102F047FC3B00180010231A00002117
:1002D00002F040FC21007B1802221A607B180122E8
:1002E000DA607B1810221A617B1800221A627B18D0
:1002F000180001F023FF031E01D000F0A1F8102127
:100300007B1807221A607B1800225A607B18002293
:100310009A607B180022DA607B180021180002F036
:1003200027FA031E01D000F08BF83B0020221A6050
:100330003B000022DA603B00180002F03DFB031E88
:1003400001D000F07DF8C046BD4615B090BD00005C
:1003500080B500AF1B4B1C4A1A601A4B1B4A5A60EF
:10036000184B00229A60174B0122DA60154B0022CD
:100370001A61144B00225A61124B00229A61114BF0
:100380000022DA610F4B00221A620E4B180000F0B7
:1003900099FC031E01D000F053F80A4B002118000D
:1003A00001F034FE031E01D000F04AF8054B002195
:1003B000180001F077FE031E01D000F041F8C0469E
:1003C000BD4680BD28000020005400400E090020DA
:1003D00080B586B000AF3B1D180014231A00002121
:1003E00002F0B8FB154B5A69144B802189020A436D
:1003F0005A61124B5A6980239B0213403B603B6851
:100400009023DB0500221821180000F023FC3B1D7F
:1004100018221A603B1D01225A603B1D00229A607F
:100420003B1D0022DA603A1D9023DB051100180005
:1004300000F0A0FAC046BD4606B080BD00100240E4
:1004400080B500AF72B6C046C046FDE780B582B049
:1004500000AF0F4B9A690E4B01210A439A610C4B76
:100460009B69012213407B607B68094BDA69084B6A
:10047000802149050A43DA61054BDA6980235B056F
:1004800013403B603B68C046BD4602B080BDC046DD
:100490000010024090B58BB000AF786014243B1977
:1004A000180014231A00002102F054FB7B681B681B
:1004B000214A93423BD1214B5A69204B802189022A
:1004C0000A435A611D4B5A6980239B0213403B61CA
:1004D0003B693B19C022D2001A6021007B1812220E
:1004E0005A607B1801229A607B180322DA607B181D
:1004F00004221A617A189023DB051100180000F01D
:1005000039FA0E4BDA690D4B802189030A43DA610F
:100510000A4BDA6980239B031340FB60FB680022CF
:100520000021172000F0A2F9172000F0B4F9C0460E
:10053000BD460BB090BDC0460054004000100240C4
:1005400080B500AFC046FDE780B500AFC046FDE70F
:1005500080B500AFC046BD4680BD80B500AFC04687
:10056000BD4680BD80B500AF00F094F8C046BD46E2
:1005700080BD000080B500AF094B1B689A69E0237D
:10058000DB00134004D0064B180000F053FD03E0DD
:10059000034B180000F034FDC046BD4680BDC04688
:1005A0002800002080B500AFC046BD4680BD0000D9
:1005B0000D488546FFF7F6FF0C480D490D4A00230C
:1005C00002E0D458C4500433C4188C42F9D30A4A08
:1005D0000A4C002301E013600432A242FBD302F074
:1005E000C1FAFFF71DFEFEE700100020000000200A
:1005F0000C000020042C00080C00002080000020CB
:10060000FEE7000080B500AF074B1A68064B1021CB
:100610000A431A60032000F009F8FFF717FF0023D0
:100620001800BD4680BDC0460020024090B583B092
:1006300000AF7860144B1C68144B1B781900FA2328
:100640009800FFF761FD030019002000FFF75CFD33
:100650000300180000F02FF9031E01D001230FE062
:100660007B68032B0BD8796801235B4200221800BA
:1006700000F0FCF8064B7A681A60002300E00123C2
:100680001800BD4603B090BD000000200800002007
:100690000400002080B500AF054B1B781A00054B05
:1006A0001B68D218034B1A60C046BD4680BDC046C9
:1006B000080000207C00002080B500AF024B1B68C2
:1006C0001800BD4680BDC0467C00002080B584B0C7
:1006D00000AF7860FFF7F0FF0300BB607B68FB6052
:1006E000FB68013305D00A4B1B781A00FB689B1886
:1006F000FB60C046FFF7E0FF0200BB68D31AFA6850
:100700009A42F7D8C046C046BD4604B080BDC04638
:100710000800002080B582B000AF0200FB1D1A70F7
:10072000FB1D1B787F2B09D8FB1D1B781A001F238C
:100730001A40044B012191400A001A60C046BD4690
:1007400002B080BD00E100E090B583B000AF0200D0
:100750003960FB1D1A70FB1D1B787F2B28D82F4A90
:10076000FB1D1B785BB29B08C0339B009B58FA1D96
:100770001278110003220A40D200FF2191400A00A2
:10078000D2431A4011003B689B01FF221A40FB1D17
:100790001B78180003230340DB009A401F48FB1D11
:1007A0001B785BB29B080A43C0339B001A5031E0B0
:1007B0001B4AFB1D1B7819000F230B40083B9B08AD
:1007C00006339B00D31804331B68FA1D12781100FE
:1007D00003220A40D200FF2191400A00D2431A406E
:1007E00011003B689B01FF221A40FB1D1B7818007B
:1007F00003230340DB009A400948FB1D1B781C00C3
:100800000F232340083B9B080A4306339B00C31871
:1008100004331A60C046BD4603B090BD00E100E05D
:1008200000ED00E080B582B000AF78607B685A1EB2
:1008300080235B049A4201D3012310E00A4B7A68BB
:10084000013A5A6001235B4203211800FFF77CFF45
:10085000054B00229A60044B07221A6000231800FF
:10086000BD4602B080BDC04610E000E080B584B057
:1008700000AFB9607A600F217B18021C1A70BA6849
:100880007B181B785BB211001800FFF75DFFC046B4
:10089000BD4604B080BD80B582B000AF0200FB1D34
:1008A0001A70FB1D1B785BB21800FFF733FFC046C0
:1008B000BD4602B080BD80B582B000AF78607B6875
:1008C0001800FFF7AFFF03001800BD4602B080BD5F
:1008D00080B584B000AF78600F217B1800221A70B9
:1008E0007B6821229B5CDBB2022B06D07B68042252
:1008F0009A637B1801221A7028E07B681B681A68CB
:100900007B681B680E218A431A607B681B681A6823
:100910007B681B6801218A431A607B681A6C7B68BC
:10092000DB6B012191400A005A607B682122012182
:1009300099547B682022002199547B685B6B002BC3
:1009400004D07B685B6B7A68100098470F23FB1814
:100950001B781800BD4604B080BD80B582B000AFE2
:1009600078607B6821229B5CDBB21800BD4602B038
:1009700080BD000080B586B000AF7860396000238C
:100980007B614FE13B681B6801217A6991400A0055
:100990001340FB60FB68002B00D140E13B685B68C3
:1009A00003221340012B05D03B685B6803221340F0
:1009B000022B30D17B689B683B617B695B00032223
:1009C0009A401300DA433B6913403B613B68DA68A5
:1009D0007B695B009A4013003A6913433B617B6873
:1009E0003A699A607B685B683B6101227B699A4047
:1009F0001300DA433B6913403B613B685B681B09AA
:100A000001221A407B699A4013003A6913433B6103
:100A10007B683A695A603B685B6803221340032B8A
:100A200017D07B68DB683B617B695B0003229A40DF
:100A30001300DA433B6913403B613B689A687B696A
:100A40005B009A4013003A6913433B617B683A6943
:100A5000DA603B685B6803221340022B23D17B6979
:100A6000DA087B6808329200D3583B617B69072221
:100A700013409B000F229A401300DA433B69134056
:100A80003B613B681A697B6907210B409B009A40D8
:100A900013003A6913433B617B69DA087B680832CB
:100AA00092003969D1507B681B683B617B695B00B0
:100AB00003229A401300DA433B6913403B613B68D1
:100AC0005B6803221A407B695B009A4013003A6915
:100AD00013433B617B683A691A603B685A68C023DC
:100AE0009B02134000D19AE0544B9A69534B012169
:100AF0000A439A61514B9B6901221340BB60BB685A
:100B00004F4A7B699B0802339B009B583B617B6982
:100B1000032213409B000F229A401300DA433B69E3
:100B200013403B617A689023DB059A4213D07B68BF
:100B3000444A93420DD07B68434A934207D07B6876
:100B4000424A934201D1032306E0052304E0022335
:100B500002E0012300E000237A6903210A409200A9
:100B600093403A6913433B6135497B699B080233E3
:100B70009B003A695A50364B9B683B61FB68DA43ED
:100B80003B6913403B613B685A6880235B03134019
:100B900003D03A69FB6813433B612D4B3A699A6075
:100BA0002B4BDB683B61FB68DA433B6913403B61DD
:100BB0003B685A6880239B03134003D03A69FB6863
:100BC00013433B61224B3A69DA60214B5B683B611E
:100BD000FB68DA433B6913403B613B685A688023FA
:100BE0009B02134003D03A69FB6813433B61184BE7
:100BF0003A695A60164B1B683B61FB68DA433B69F4
:100C000013403B613B685A6880235B02134003D06A
:100C10003A69FB6813433B610D4B3A691A607B6983
:100C200001337B613B681A687B69DA40131E00D090
:100C3000A8E6C046C046BD4606B080BD00100240D2
:100C4000000001400004004800080048000C004873
:100C50000004014080B582B000AF78600800110048
:100C6000BB1C021C1A807B1C0A1C1A707B1C1B7884
:100C7000002B04D0BB1C1A887B689A6103E0BB1C64
:100C80001A887B689A62C046BD4602B080BD80B5B6
:100C900084B000AF78600A00BB1C1A807B685B6977
:100CA000FB60BB1C1B88FA6813401A04FB68DB431B
:100CB000B91C09880B401A437B689A61C046BD463F
:100CC00004B080BD80B582B000AF78607B68002B37
:100CD00001D1012382E07B6841229B5CDBB2002BC7
:100CE00007D17B684022002199547B681800FFF7E8
:100CF000D1FB7B684122242199547B681B681A68C8
:100D00007B681B6801218A431A607B685A687B688C
:100D10001B6834490A401A617B681B689A687B68C3
:100D20001B6831490A409A607B68DB68012B08D157
:100D30007B689A687B681B68802109020A439A6075
:100D400007E07B689A687B681B68842109020A4374
:100D50009A607B68DB68022B04D17B681B68802269
:100D600012015A607B681B685A687B681B681F49C0
:100D70000A435A607B681B68DA687B681B681A49FB
:100D80000A40DA607B681A697B685B691A43110064
:100D90007B689B691A027B681B680A43DA607B6880
:100DA000D9697B681A6A7B681B680A431A607B688A
:100DB0001B681A687B681B6801210A431A607B68FC
:100DC00000225A647B684122202199547B680022CA
:100DD0001A637B6842220021995400231800BD4603
:100DE00002B080BDFFFFFFF0FF7FFFFF0080000229
:100DF00090B589B002AFF86008007A6019000A2344
:100E0000FB18021C1A800823FB180A1C1A80FB68B6
:100E100041229B5CDBB2202B00D0E7E0FB68402244
:100E20009B5C012B01D10223E1E0FB684022012100
:100E30009954FFF741FC03007B6180231902F86895
:100E40007B6900931923012200F072FE031E01D07A
:100E50000123CCE0FB68412221219954FB68422206
:100E600010219954FB6800225A64FB687A685A6220
:100E7000FB680822BA1812885A85FB6800225A6358
:100E8000FB685B8D9BB2FF2B11D9FB68FF221A8593
:100E9000FB681B8DDAB280235C040A23FB181988D7
:100EA000F868554B0093230001F012F875E0FB68D9
:100EB0005B8D9AB2FB681A85FB681B8DDAB28023C2
:100EC0009C040A23FB181988F8684B4B00932300F5
:100ED00000F0FEFF61E07A69B96AFB68180000F073
:100EE00075FE031E01D0012381E0FB685B6A1A785E
:100EF000FB681B689A62FB685B6A5A1CFB685A6253
:100F0000FB685B8D9BB2013B9AB2FB685A85FB681C
:100F10001B8D013B9AB2FB681A85FB685B8D9BB207
:100F2000002B3AD0FB681B8D002B36D1BA6AF868CB
:100F30007B69009313000022802100F0F9FD031E5D
:100F400001D0012353E0FB685B8D9BB2FF2B11D9CD
:100F5000FB68FF221A85FB681B8DDAB280235C04D4
:100F60000A23FB181988F86800230093230000F077
:100F7000AFFF12E0FB685B8D9AB2FB681A85FB68D5
:100F80001B8DDAB280239C040A23FB181988F868A9
:100F900000230093230000F09BFFFB685B8D9BB256
:100FA000002B98D17A69B96AFB68180000F054FEEA
:100FB000031E01D001231AE0FB681B682022DA61BE
:100FC000FB681B685A68FB681B680C490A405A603A
:100FD000FB68412220219954FB6842220021995448
:100FE000FB68402200219954002300E002231800EE
:100FF000BD4607B090BDC0460020008000E800FE5E
:1010000080B584B000AF78607B681B689B69FB602B
:101010007B681B681B68BB607B685B6B002B05D023
:101020007B685B6BBA68F96878689847C046BD46CC
:1010300004B080BD80B586B000AF78607B681B6867
:101040009B697B617B681B681B683B617A698023B5
:101050005B0013400ED03B69802213400AD07B68AE
:101060005B6C01221A437B685A647B681B68802290
:101070005200DA617A698023DB0013400ED03B69AD
:10108000802213400AD07B685B6C08221A437B687D
:101090005A647B681B688022D200DA617A698023F7
:1010A0009B0013400ED03B69802213400AD07B681E
:1010B0005B6C02221A437B685A647B681B6880223F
:1010C0009200DA617B685B6CFB60FB680B2213406B
:1010D00005D0FA687B681100180000F0BDFBC0461F
:1010E000BD4606B080BD80B582B000AF7860C04616
:1010F000BD4602B080BD80B582B000AF7860C0460A
:10110000BD4602B080BD80B582B000AF78600800F7
:101110001100FB1C021C1A703B000A1C1A80C046FE
:10112000BD4602B080BD80B582B000AF7860C046D9
:10113000BD4602B080BD80B582B000AF7860C046C9
:10114000BD4602B080BD80B582B000AF7860C046B9
:10115000BD4602B080BD000080B586B000AFF8602B
:10116000B9607A60FB68DB6A7B61BB683B61FB68E6
:1011700040229B5C012B01D10223E6E0FB68402268
:10118000012199543B692022134009D07B68202219
:10119000134005D03A69FB681100180000F0E4F92B
:1011A0003B691022134052D07B68102213404ED06E
:1011B000FB685B8D9BB2002B2DD1FB6841229B5CB1
:1011C000DBB2282B0BD17A6980239B049A4206D18B
:1011D0003A69FB681100180000F0E6FA36E0FB6897
:1011E00041229B5CDBB2292B10D17B69594A934287
:1011F0000CD0FB681B681022DA61FB68180000F055
:1012000056FCFB68180000F04BF91FE0FB681B68F8
:101210001022DA6191E0FB681B681022DA61FB683A
:101220005B6C04221A43FB685A647B69002B05D06F
:101230007A6980235B049A4200D07EE0FB685A6C96
:10124000FB681100180000F007FB76E075E03B69D1
:10125000042213402FD07B68042213402BD0FB685C
:101260005B8D9BB2002B18D0FB681B685A6AFB6829
:101270005B6AD2B21A70FB685B6A5A1CFB685A62DE
:10128000FB681B8D013B9AB2FB681A85FB685B8D7E
:101290009BB2013B9AB2FB685A85FB685B8D9BB29F
:1012A000002B4CD17B692B4A934248D0FB68180035
:1012B00000F0F6F843E03B69082213400AD07B684F
:1012C0000822134006D03A69FB681100180000F0AC
:1012D00043F835E03B690222134031D07B6802229B
:1012E00013402DD0FB685B8D9BB2002B18D0FB68A0
:1012F0005B6A1A78FB681B689A62FB685B6A5A1C17
:10130000FB685A62FB685B8D9BB2013B9AB2FB683B
:101310005A85FB681B8D013B9AB2FB681A850FE06A
:101320007A6980235B049A4202D07B69002B07D143
:10133000FB68180000F0B4F802E0C04600E0C046C8
:10134000FB6840220021995400231800BD4606B0D6
:1013500080BDC0460000FFFFB0B584B000AF78602C
:1013600039607B6841229B5CDBB21A002823134062
:10137000282B00D088E07B681B689B691B0CDAB2C5
:101380000F257B1901210A401A707B681B689B6935
:101390001B0C9AB20C203B18FE210A401A807B6875
:1013A0001B689B689AB20A243B199205920D1A8019
:1013B0007B681B68DB689AB20823FB18FE210A4091
:1013C0001A807B68DB68022B48D121007B181B88C0
:1013D000DB099AB23B181B8853409BB21A000623C4
:1013E000134020D13B187A1812881A807B689B6CB6
:1013F0005A1C7B689A647B689B6C022B4CD17B687F
:1014000000229A647B681B680822DA617B684022AC
:10141000002199543B181A887B1919787B681800A9
:10142000FFF771FE38E00C243B190822BA18128825
:101430001A8080231A027B681100180000F082FDD8
:101440007B684022002199543B191A880F23FB180E
:1014500019787B681800FFF756FE1DE080231A02FA
:101460007B681100180000F06DFD7B6840220021B0
:1014700099540C23FB181A880F23FB1819787B68E2
:101480001800FFF740FE07E07B681B680822DA615E
:101490007B68402200219954C046BD4604B0B0BDCF
:1014A00080B584B000AF78607B681B681B68FB6008
:1014B0007B68422200219954FA688023DB011340A3
:1014C00008D07B681B681A687B681B6824490A403F
:1014D0001A600CE0FA6880231B02134007D07B6877
:1014E0001B681A687B681B681E490A401A607B6883
:1014F00041229B5CDBB2292B14D17B68412228213D
:1015000099547B6821221A637B680121180000F03E
:1015100019FD7B684022002199547B681800FFF771
:10152000E2FD19E07B6841229B5CDBB22A2B13D1E0
:101530007B684122282199547B6822221A637B68A8
:101540000221180000F0FEFC7B6840220021995423
:101550007B681800FFF7CFFDC046BD4604B080BDD4
:10156000FFBFFFFFFF7FFFFF80B586B000AF786051
:1015700039607B681B681B683B613B687B610F209F
:101580003B187A684121525C1A707B681B682022E4
:10159000DA613B181B78212B03D03B181B78292BD1
:1015A00009D17B4A7B681100180000F0CBFC7B68F6
:1015B00021221A6311E00F22BB181B78222B03D0C3
:1015C000BB181B782A2B08D1724A7B6811001800BF
:1015D00000F0B8FC7B6822221A637B681B685A689B
:1015E0007B681B68802109020A435A607B681B687C
:1015F0005A687B681B6868490A405A607B68180013
:1016000000F055FA3A698023DB01134013D07B6860
:101610001B681A687B681B6860490A401A607B680F
:101620009B6B002B1FD07B689B6B1B685B689AB21F
:101630007B685A8517E03A6980231B02134012D059
:101640007B681B681A687B681B6855490A401A60EA
:101650007B68DB6B002B06D07B68DB6B1B685B68F1
:101660009AB27B685A857B690422134020D07B693B
:10167000042293437B617B681B685A6A7B685B6AC0
:10168000D2B21A707B685B6A5A1C7B685A627B68AC
:101690001B8D002B0CD07B681B8D013B9AB27B68A5
:1016A0001A857B685B8D9BB2013B9AB27B685A8539
:1016B0007B685B8D9BB2002B05D07B685B6C042242
:1016C0001A437B685A647B684222002199547B68E4
:1016D00000225A637B685B6C002B13D07B685A6CCA
:1016E0007B681100180000F0B7F87B6841229B5C12
:1016F000DBB2282B47D17A697B681100180000F013
:1017000053F840E07B68DB6A264A934216D07B6838
:101710001800FFF7C5FE7B68224ADA627B68412227
:10172000202199547B6800221A637B6840220021A3
:1017300099547B681800FFF7F6FC24E07B6841228F
:101740009B5CDBB2222B0FD17B6841222021995474
:101750007B6800221A637B684022002199547B68D1
:101760001800FFF7C8FC0EE07B6841222021995445
:101770007B6800221A637B684022002199547B68B1
:101780001800FFF7B0FCC046BD4606B080BDC0469D
:10179000018000000280000000E800FEFFBFFFFFA4
:1017A000FF7FFFFF0000FFFF80B582B000AF7860D1
:1017B00039607B68264ADA627B6800221A637B689C
:1017C0004122202199547B684222002199547B6850
:1017D00000225A633B680422134022D07B681B68B6
:1017E0005A6A7B685B6AD2B21A707B685B6A5A1C61
:1017F0007B685A627B681B8D002B12D07B681B8D27
:10180000013B9AB27B681A857B685B8D9BB2013B7A
:101810009AB27B685A857B685B6C04221A437B68AA
:101820005A640C4A7B681100180000F08BFB7B683F
:101830001B681022DA617B684022002199547B6882
:101840001800FFF770FCC046BD4602B080BDC04620
:101850000000FFFF0380000080B584B000AF786017
:1018600039600F203B187A684121525C1A707B68FE
:101870004222002199547B68724ADA627B68002216
:101880005A857B685A6C3B681A437B685A643B18DC
:101890001B78282B07D03B181B78292B03D03B182B
:1018A0001B782A2B0CD17B680321180000F04AFB1F
:1018B0007B684122282199547B68634A5A6332E04D
:1018C000624A7B681100180000F03CFB7B6818003E
:1018D00000F0EDF87B6841229B5CDBB2602B1FD0EF
:1018E0007B684122202199547B681B689B692022D8
:1018F0001340202B14D17B681B689B691022134076
:10190000102B09D17B681B681022DA617B685B6C45
:1019100004221A437B685A647B681B682022DA61C0
:101920007B6800225A637B681B6BBB607B689B6B88
:10193000002B3BD0BB68112B02D0BB68212B35D1CB
:101940007B681B681A688023DB011A408023DB0157
:101950009A4207D17B681B681A687B681B683C4900
:101960000A401A607B689B6B1800FEF7F6FF0300C5
:10197000012B16D07B689B6B364A5A637B684022EA
:10198000002199547B689B6B1800FEF7A1FF031E92
:1019900051D07B689B6B5A6B7B689B6B18009047A0
:1019A00049E07B68180000F059F844E07B68DB6B85
:1019B000002B3BD0BB68122B02D0BB68222B35D149
:1019C0007B681B681A6880231B021A4080231B0255
:1019D0009A4207D17B681B681A687B681B681E499E
:1019E0000A401A607B68DB6B1800FEF7B6FF030045
:1019F000012B16D07B68DB6B164A5A637B6840224A
:101A0000002199547B68DB6B1800FEF761FF031E11
:101A100013D07B68DB6B5A6B7B68DB6B18009047DD
:101A20000BE07B68180000F019F806E07B681800EE
:101A300000F014F802E0C04600E0C046C046BD46D3
:101A400004B080BD0000FFFF5911000803800000B2
:101A5000FFBFFFFFF31A0008FF7FFFFF80B582B0D2
:101A600000AF78607B6841229B5CDBB2602B0FD1BA
:101A70007B684122202199547B6800221A637B688D
:101A80004022002199547B681800FFF75CFB0AE0B4
:101A90007B6800221A637B684022002199547B688E
:101AA0001800FFF748FBC046BD4602B080BD80B5B8
:101AB00082B000AF78607B681B689B69022213408C
:101AC000022B03D17B681B6800229A627B681B682B
:101AD0009B6901221340012B07D07B681B689A6920
:101AE0007B681B6801210A439A61C046BD4602B06B
:101AF00080BD80B584B000AF78607B685B6AFB60B6
:101B0000FB689B6B002B03D0FB689B6B00225A6326
:101B1000FB68DB6B002B03D0FB68DB6B00225A6396
:101B2000FB681800FFF79AFFC046BD4604B080BDB1
:101B300080B584B000AFF860B9603B60FB1D1A70DF
:101B400030E03B6801332DD0FEF7B6FD0200BB69E3
:101B5000D31A3A689A4202D33B68002B22D1FB6821
:101B60001B689B69BA681340BA68D31A5A4253413A
:101B7000DBB21A00FB1D1B789A4213D1FB685B6C29
:101B800020221A43FB685A64FB68412220219954A1
:101B9000FB68422200219954FB684022002199549D
:101BA00001230FE0FB681B689B69BA681340BA68A1
:101BB000D31A5A425341DBB21A00FB1D1B789A42DA
:101BC000BFD000231800BD4604B080BD80B584B0EE
:101BD00000AFF860B9607A6032E07A68B968FB6893
:101BE000180000F07DF8031E01D0012330E0BB682F
:101BF000013325D0FEF760FD02007B68D31ABA6876
:101C00009A4202D3BB68002B1AD1FB681B689B6900
:101C100002221340022B13D0FB685B6C20221A4374
:101C2000FB685A64FB68412220219954FB684222D8
:101C300000219954FB68402200219954012307E0B8
:101C4000FB681B689B6902221340022BC5D100234D
:101C50001800BD4604B080BD80B584B000AFF86008
:101C6000B9607A602FE07A68B968FB68180000F004
:101C700037F8031E01D001232DE0FEF71DFD020001
:101C80007B68D31ABA689A4202D3BB68002B1AD178
:101C9000FB681B689B6920221340202B13D0FB6834
:101CA0005B6C20221A43FB685A64FB6841222021A6
:101CB0009954FB68422200219954FB68402200217C
:101CC0009954012307E0FB681B689B69202213409D
:101CD000202BC8D100231800BD4604B080BD0000F1
:101CE00080B58AB000AFF860B9607A602723FB182E
:101CF00000221A70FB681B689B69BB6100233B6272
:101D00007B68FB61BB691022134000D179E0FB685E
:101D10001B681022DA6157E02722BB18BA18127824
:101D20001A70BB6801334FD0FEF7C6FC0200FB6996
:101D3000D31ABA689A4202D3BB68002B44D1FB681D
:101D40001B685A688023DB0113407B6113203B181A
:101D5000FA684221525C1A70FB681B689A698023FA
:101D60001B021A4080231B029A4226D17A698023E3
:101D7000DB019A4221D03B181B78202B1DD0FB6839
:101D80001B685A68FB681B688021C9010A435A60B6
:101D9000FEF792FC0300FB610FE0FEF78DFC0200F2
:101DA000FB69D31A192B08D93B6A202213433B62E3
:101DB0002723FB1801221A7006E0FB681B689B6949
:101DC00020221340202BE8D1FB681B689B6920224E
:101DD0001340202B04D02723FB181B78002B9BD00B
:101DE0002723FB181B78002B03D1FB681B682022DC
:101DF000DA613B6A042213433B622723FB1801226A
:101E00001A70FB681B689B69BB61BA6980235B0021
:101E100013400CD03B6A012213433B62FB681B68F2
:101E200080225200DA612723FB1801221A70BA6956
:101E30008023DB0013400CD03B6A082213433B6233
:101E4000FB681B688022D200DA612723FB1801227D
:101E50001A70BA6980239B0013400CD03B6A02229F
:101E600013433B62FB681B6880229200DA612723E0
:101E7000FB1801221A702723FB181B78002B1DD09A
:101E8000FB681800FFF713FEFB681B685A68FB68C5
:101E90001B680E490A405A60FB685A6C3B6A1A4339
:101EA000FB685A64FB68412220219954FB68422256
:101EB00000219954FB684022002199542723FB18E4
:101EC0001B781800BD460AB080BDC04600E800FE81
:101ED00090B587B000AFF860080011007B600A245D
:101EE0003B19021C1A8009203B180A1C1A703B1966
:101EF0001B889B059A0D3B181B781904FF231B04B4
:101F00000B401A437B681A43BB6A13435B005B08B0
:101F10007B61FB681B685B68BA6A510D8022D20046
:101F20000A4007490A43D2431A401100FB681B6864
:101F30007A690A435A60C046BD4607B090BDC046A4
:101F4000FF63FF0380B584B000AF78600A00BB1C5C
:101F50001A800023FB60BB1C1B880122134010D099
:101F6000FB6842221343FB607B6841229B5CDBB22F
:101F70001A0028231340282B03D0FB68B0221343F8
:101F8000FB60BB1C1B880222134010D0FB6844225C
:101F90001343FB607B6841229B5CDBB21A00282361
:101FA0001340282B03D0FB68B0221343FB60BB1CFB
:101FB00000229B5E002B03DAFB68B8221343FB6010
:101FC000BB1C1B88102B03D1FB6890221343FB60C2
:101FD000BB1C1B88202B03D1FB6820221343FB6012
:101FE000BB1C1B88402B03D1FB6840221343FB60C2
:101FF0007B681B681A68FB68D9437B681B680A40CA
:102000001A60C046BD4604B080BD000080B582B0F5
:1020100000AF786039607B6841229B5CDBB2202B8B
:1020200038D17B6840229B5C012B01D1022332E036
:102030007B684022012199547B68412224219954D4
:102040007B681B681A687B681B6801218A431A60D9
:102050007B681B681A687B681B6811490A401A6014
:102060007B681B6819687B681B683A680A431A60BA
:102070007B681B681A687B681B6801210A431A6029
:102080007B684122202199547B6840220021995489
:10209000002300E002231800BD4602B080BDC04608
:1020A000FFEFFFFF80B584B000AF786039607B68D8
:1020B00041229B5CDBB2202B39D17B6840229B5CA8
:1020C000012B01D1022333E07B6840220121995486
:1020D0007B684122242199547B681B681A687B68BD
:1020E0001B6801218A431A607B681B681B68FB60C0
:1020F000FB68114A1340FB603B681B02FA681343FC
:10210000FB607B681B68FA681A607B681B681A684A
:102110007B681B6801210A431A607B6841222021E9
:1021200099547B68402200219954002300E0022347
:102130001800BD4604B080BDFFF0FFFF80B588B039
:1021400000AF78607B68002B01D1012301E37B683D
:102150001B680122134000D18DE0C34B5B680C2249
:102160001340042B0ED0C04B5B680C221340082B8D
:1021700016D1BD4B5A6880235B021A4080235B0254
:102180009A420DD1B84B1A6880239B02134000D1AC
:1021900070E07B685B68002B00D06BE00123D8E225
:1021A0007B685B68012B07D1AF4B1A68AE4B80216F
:1021B00049020A431A602FE07B685B68002B0CD150
:1021C000A94B1A68A84BA9490A401A60A64B1A687D
:1021D000A54BA7490A401A601EE07B685B68052B87
:1021E0000ED1A14B1A68A04B8021C9020A431A6084
:1021F0009D4B1A689C4B802149020A431A600BE0F0
:10220000994B1A68984B99490A401A60964B1A687C
:10221000954B97490A401A607B685B68002B14D085
:10222000FEF74AFA0300BB6108E0FEF745FA020038
:10223000BB69D31A642B01D903238AE28A4B1A683B
:1022400080239B021340F0D015E0FEF735FA03001F
:10225000BB6108E0FEF730FA0200BB69D31A642BB9
:1022600001D9032375E2804B1A6880239B02134037
:10227000F0D100E0C0467B681B680222134000D109
:1022800069E0794B5B680C2213400BD0764B5B689E
:102290000C221340082B1CD1734B5A6880235B021D
:1022A000134016D1704B1B680222134005D07B6887
:1022B000DB68012B01D001234BE26B4B1B68F8223A
:1022C000934319007B681B69DA00674B0A431A6065
:1022D00041E07B68DB68002B24D0634B1A68624BBB
:1022E00001210A431A60FEF7E7F90300BB6108E029
:1022F000FEF7E2F90200BB69D31A022B01D90323CE
:1023000027E2594B1B6802221340F1D0564B1B6841
:10231000F822934319007B681B69DA00524B0A4389
:102320001A6018E0504B1A684F4B01218A431A601B
:10233000FEF7C2F90300BB6108E0FEF7BDF9020039
:10234000BB69D31A022B01D9032302E2464B1B6857
:1023500002221340F1D17B681B680822134036D05B
:102360007B68DB69002B19D03F4B5A6A3E4B012139
:102370000A435A62FEF7A0F90300BB6108E0FEF7CA
:102380009BF90200BB69D31A022B01D90323E0E1B8
:10239000354B5B6A02221340F1D018E0324B5A6A87
:1023A000314B01218A435A62FEF786F90300BB6173
:1023B00008E0FEF781F90200BB69D31A022B01D9AC
:1023C0000323C6E1284B5B6A02221340F1D17B68EC
:1023D0001B680422134000D1B4E01F203B180022E8
:1023E0001A70214BDA6980235B05134010D11E4B14
:1023F000DA691D4B802149050A43DA611A4BDA6913
:1024000080235B051340FB60FB683B1801221A70B8
:10241000184B1A6880235B0013401AD1154B1A68B9
:10242000144B802149000A431A60FEF745F9030066
:10243000BB6108E0FEF740F90200BB69D31A642BC8
:1024400001D9032385E10B4B1A6880235B001340FD
:10245000F0D07B689B68012B0ED1034B1A6A024BAC
:1024600001210A431A6235E000100240FFFFFEFF1F
:10247000FFFFFBFF007000407B689B68002B0CD1C6
:10248000B64B1A6AB54B01218A431A62B34B1A6ADA
:10249000B24B04218A431A621CE07B689B68052BBF
:1024A0000CD1AE4B1A6AAD4B04210A431A62AB4BF6
:1024B0001A6AAA4B01210A431A620BE0A74B1A6A57
:1024C000A64B01218A431A62A44B1A6AA34B04212A
:1024D0008A431A627B689B68002B14D0FEF7ECF8E5
:1024E0000300BB6109E0FEF7E7F80200BB69D31AFD
:1024F0009B4A934201D903232BE1984B1B6A02228A
:102500001340F0D013E0FEF7D7F80300BB6109E0F9
:10251000FEF7D2F80200BB69D31A914A934201D95F
:10252000032316E18D4B1B6A02221340F0D11F23B7
:10253000FB181B78012B05D1884BDA69874B894939
:102540000A40DA617B681B681022134063D07B6805
:102550005B69012B2AD1814B5A6B804B04210A43C2
:102560005A637E4B5A6B7D4B01210A435A63FEF737
:10257000A3F80300BB6108E0FEF79EF80200BB6908
:10258000D31A022B01D90323E3E0744B5B6B0222C5
:102590001340F1D0714B5B6BF822934319007B68B9
:1025A0009B69DA006D4B0A435A6334E07B685B69D0
:1025B000053311D1694B5A6B684B04218A435A6326
:1025C000664B5B6BF822934319007B689B69DA00CA
:1025D000624B0A435A631EE0604B5A6B5F4B042107
:1025E0000A435A635D4B5A6B5C4B01218A435A6321
:1025F000FEF762F80300BB6108E0FEF75DF8020039
:10260000BB69D31A022B01D90323A2E0534B5B6BA6
:1026100002221340F1D17B681B6A002B00D197E0A6
:102620004E4B5B680C221340082B00D16BE07B689B
:102630001B6A022B4CD1494B1A68484B4A490A4045
:102640001A60FEF739F80300BB6108E0FEF734F8C2
:102650000200BB69D31A022B01D9032379E03F4B57
:102660001A6880239B041340F0D13C4BDB6A0F2295
:10267000934319007B68DA6A384B0A43DA62374BB6
:102680005B683A4A134019007B689A6A7B685B6A08
:102690001A43324B0A435A60304B1A682F4B802141
:1026A00049040A431A60FEF707F80300BB6108E01B
:1026B000FEF702F80200BB69D31A022B01D90323EB
:1026C00047E0264B1A6880239B041340F0D03FE07C
:1026D000224B1A68214B24490A401A60FDF7ECFF8F
:1026E0000300BB6108E0FDF7E7FF0200BB69D31AF6
:1026F000022B01D903232CE0184B1A6880239B047A
:102700001340F0D124E07B681B6A012B01D1012327
:102710001FE0124B5B687B61104BDB6A3B617A699F
:1027200080235B021A407B685B6A9A420ED13B6948
:102730000F221A407B68DB6A9A4207D17A69F0233C
:102740009B031A407B689B6A9A4201D0012300E0F8
:1027500000231800BD4608B080BDC04600100240EE
:1027600088130000FFFFFFEFFFFFFFFEFFFFC2FF28
:1027700080B584B000AF786039607B68002B01D1F0
:102780000123B3E05B4B1B68012213403A689A4275
:1027900011D9584B1B68012293431900554B3A68D5
:1027A0000A431A60534B1B68012213403A689A424D
:1027B00001D001239AE07B681B680222134015D0E8
:1027C0007B681B680422134006D04B4B5A684A4B67
:1027D000E021C9000A435A60474B5B68F0229343EB
:1027E00019007B689A68444B0A435A607B681B68EF
:1027F0000122134040D07B685B68012B07D13E4B20
:102800001A6880239B02134014D101236EE07B6879
:102810005B68022B07D1384B1A6880239B04134056
:1028200008D1012362E0344B1B680222134001D11E
:1028300001235BE0304B5B680322934319007B6804
:102840005A682D4B0A435A60FDF736FF0300FB60C0
:1028500009E0FDF731FF0200FB68D31A274A9342D3
:1028600001D9032342E0244B5B680C221A407B68A9
:102870005B689B009A42ECD11E4B1B6801221340FF
:102880003A689A4211D21B4B1B68012293431900EC
:10289000184B3A680A431A60164B1B680122134012
:1028A0003A689A4201D0012320E07B681B68042229
:1028B000134009D0104B5B68114A134019007B6824
:1028C000DA680D4B0A435A6000F020F801000A4B09
:1028D0005B681B090F2213400A4AD35C0A00DA40E6
:1028E000094B1A600320FDF7A1FE00231800BD4626
:1028F00004B080BD00200240001002408813000098
:10290000FFF8FFFFCC2B00080000002080B586B048
:1029100000AF0023FB600023BB6000237B6100232A
:102920007B6000233B61204B5B68FB60FB680C22F3
:102930001340042B02D0082B03D02CE01B4B3B612F
:102940002CE0FB689B0C0F221340194AD35C7B6080
:10295000154BDB6A0F221340164AD35CBB60FA6842
:1029600080235B02134009D0B9681048FDF7CCFB07
:1029700003001A007B6853437B6109E079680A0011
:102980005201521A93019B1ADB005B181B027B61F8
:102990007B693B6102E0054B3B61C0463B69180027
:1029A000BD4606B080BDC0460010024000127A004D
:1029B000DC2B0008EC2B000880B586B000AF7860F7
:1029C00000233B610023FB607B681A6880235B0265
:1029D000134000D18EE017203B1800221A70574B8D
:1029E000DA6980235B05134010D1544BDA69534BED
:1029F000802149050A43DA61504BDA6980235B057F
:102A00001340BB60BB683B1801221A704C4B1A681C
:102A100080235B0013401AD1494B1A68484B802130
:102A200049000A431A60FDF747FE03003B6108E0D6
:102A3000FDF742FE02003B69D31A642B01D9032340
:102A400077E03F4B1A6880235B001340F0D03B4B8C
:102A50001A6AC0239B001340FB60FB68002B34D034
:102A60007B685A68C0239B001340FA689A422CD0B6
:102A7000324B1B6A334A1340FB60304B1A6A2F4BB0
:102A8000802149020A431A622C4B1A6A2B4B2E49A9
:102A90000A401A62294BFA681A62FB680122134045
:102AA00013D0FDF709FE03003B6109E0FDF704FECA
:102AB00002003B69D31A254A934201D9032338E027
:102AC0001E4B1B6A02221340F0D01C4B1B6A1D4A8E
:102AD000134019007B685A68184B0A431A6217237F
:102AE000FB181B78012B05D1144BDA69134B1849DD
:102AF0000A40DA617B681B680122134009D00F4B42
:102B00001B6B0322934319007B689A680B4B0A43A3
:102B10001A637B681B682022134009D0074B1B6B8C
:102B20001022934319007B68DA68044B0A431A6346
:102B300000231800BD4606B080BDC046001002400C
:102B400000700040FFFCFFFFFFFFFEFF8813000046
:102B5000FFFFFFEF03008218934200D17047197006
:102B60000133F9E770B500260C4C0D4D641BA41021
:102B7000A64209D1002600F019F80A4C0A4D641B40
:102B8000A410A64205D170BDB300EB58984701369A
:102B9000EEE7B300EB5898470136F2E7FC2B00084C
:102BA000FC2B0008002C0008FC2B0008F8B5C046E0
:102BB000F8BC08BC9E467047F8B5C046F8BC08BCD7
:042BC0009E46704776
:102BC40001020304050600000000000000000000EC
:102BD400010203040607080902030405060708099D
:102BE4000A0B0C0D0E0F1010010203040506070852
:082BF400090A0B0C0D0E0F1075
:042BFC00E9000008E4
:042C0000C100000807
:0C2C040000127A00040000000100000033
:04000005080005B139
:00000001FF
